{
  "contractName": "TestCollege",
  "abi": [
    {
      "inputs": [],
      "stateMutability": "nonpayable",
      "type": "constructor"
    },
    {
      "anonymous": false,
      "inputs": [
        {
          "indexed": false,
          "internalType": "string",
          "name": "name",
          "type": "string"
        },
        {
          "indexed": false,
          "internalType": "string",
          "name": "message",
          "type": "string"
        }
      ],
      "name": "messageEvent",
      "type": "event"
    },
    {
      "inputs": [
        {
          "internalType": "uint256",
          "name": "",
          "type": "uint256"
        }
      ],
      "name": "listNotes",
      "outputs": [
        {
          "internalType": "uint256",
          "name": "id",
          "type": "uint256"
        },
        {
          "internalType": "string",
          "name": "name",
          "type": "string"
        },
        {
          "internalType": "uint256",
          "name": "score",
          "type": "uint256"
        },
        {
          "internalType": "bool",
          "name": "finalized",
          "type": "bool"
        },
        {
          "internalType": "uint256",
          "name": "typeTest",
          "type": "uint256"
        }
      ],
      "stateMutability": "view",
      "type": "function"
    },
    {
      "inputs": [
        {
          "components": [
            {
              "internalType": "uint256",
              "name": "id",
              "type": "uint256"
            },
            {
              "internalType": "string",
              "name": "name",
              "type": "string"
            },
            {
              "internalType": "uint256",
              "name": "score",
              "type": "uint256"
            },
            {
              "internalType": "bool",
              "name": "finalized",
              "type": "bool"
            },
            {
              "internalType": "uint256",
              "name": "typeTest",
              "type": "uint256"
            }
          ],
          "internalType": "struct TestCollege.Note",
          "name": "noteData",
          "type": "tuple"
        }
      ],
      "name": "createRevision",
      "outputs": [],
      "stateMutability": "nonpayable",
      "type": "function"
    },
    {
      "inputs": [
        {
          "internalType": "uint256",
          "name": "id",
          "type": "uint256"
        },
        {
          "internalType": "uint256",
          "name": "score",
          "type": "uint256"
        }
      ],
      "name": "finalizeReview",
      "outputs": [],
      "stateMutability": "payable",
      "type": "function"
    },
    {
      "inputs": [
        {
          "internalType": "uint256",
          "name": "id",
          "type": "uint256"
        }
      ],
      "name": "request2T",
      "outputs": [],
      "stateMutability": "payable",
      "type": "function"
    },
    {
      "inputs": [
        {
          "internalType": "bool",
          "name": "state",
          "type": "bool"
        }
      ],
      "name": "closeOrOpenRevisions",
      "outputs": [],
      "stateMutability": "nonpayable",
      "type": "function"
    },
    {
      "inputs": [],
      "name": "balanceOfCollege",
      "outputs": [
        {
          "internalType": "uint256",
          "name": "",
          "type": "uint256"
        }
      ],
      "stateMutability": "view",
      "type": "function"
    }
  ],
  "bytecode": "0x608060405260008060146101000a81548160ff02191690831515021790555034801561002a57600080fd5b50336000806101000a81548173ffffffffffffffffffffffffffffffffffffffff021916908373ffffffffffffffffffffffffffffffffffffffff1602179055506113b58061007a6000396000f3fe6080604052600436106100555760003560e01c8063097a67ba1461005a5780631a3ff95a146100855780633f1f97f4146100a15780639afc8940146100ca578063e10be180146100e6578063f624843414610127575b600080fd5b34801561006657600080fd5b5061006f610150565b60405161007c9190610a76565b60405180910390f35b61009f600480360381019061009a9190610ad1565b6101e6565b005b3480156100ad57600080fd5b506100c860048036038101906100c39190610b36565b61042e565b005b6100e460048036038101906100df9190610b63565b6104d9565b005b3480156100f257600080fd5b5061010d60048036038101906101089190610ad1565b610700565b60405161011e959493929190610c4b565b60405180910390f35b34801561013357600080fd5b5061014e60048036038101906101499190610e8c565b6107cb565b005b60003373ffffffffffffffffffffffffffffffffffffffff1660008054906101000a900473ffffffffffffffffffffffffffffffffffffffff1673ffffffffffffffffffffffffffffffffffffffff16146101e0576040517f08c379a00000000000000000000000000000000000000000000000000000000081526004016101d790610f21565b60405180910390fd5b47905090565b600060149054906101000a900460ff1615610236576040517f08c379a000000000000000000000000000000000000000000000000000000000815260040161022d90610f8d565b60405180910390fd5b600a6102413461099d565b11610281576040517f08c379a00000000000000000000000000000000000000000000000000000000081526004016102789061101f565b60405180910390fd5b6000600160008381526020019081526020016000206040518060a0016040529081600082015481526020016001820180546102bb9061106e565b80601f01602080910402602001604051908101604052809291908181526020018280546102e79061106e565b80156103345780601f1061030957610100808354040283529160200191610334565b820191906000526020600020905b81548152906001019060200180831161031757829003601f168201915b50505050508152602001600282015481526020016003820160009054906101000a900460ff1615151515815260200160048201548152505090506001816080015114801561038457508060600151155b6103c3576040517f08c379a00000000000000000000000000000000000000000000000000000000081526004016103ba906110eb565b60405180910390fd5b600260016000848152602001908152602001600020600401819055506000600160008481526020019081526020016000206002018190555060006001600084815260200190815260200160002060030160006101000a81548160ff0219169083151502179055505050565b3373ffffffffffffffffffffffffffffffffffffffff1660008054906101000a900473ffffffffffffffffffffffffffffffffffffffff1673ffffffffffffffffffffffffffffffffffffffff16146104bc576040517f08c379a00000000000000000000000000000000000000000000000000000000081526004016104b390610f21565b60405180910390fd5b80600060146101000a81548160ff02191690831515021790555050565b600060149054906101000a900460ff1615610529576040517f08c379a000000000000000000000000000000000000000000000000000000000815260040161052090610f8d565b60405180910390fd5b3373ffffffffffffffffffffffffffffffffffffffff1660008054906101000a900473ffffffffffffffffffffffffffffffffffffffff1673ffffffffffffffffffffffffffffffffffffffff16146105b7576040517f08c379a00000000000000000000000000000000000000000000000000000000081526004016105ae90610f21565b60405180910390fd5b6000600160008481526020019081526020016000206004015414610610576040517f08c379a000000000000000000000000000000000000000000000000000000000815260040161060790611157565b60405180910390fd5b600180600084815260200190815260200160002060030160006101000a81548160ff021916908315150217905550600180600084815260200190815260200160002060040181905550806001600084815260200190815260200160002060020181905550605a600160008481526020019081526020016000206002015411156106fc57606460016000848152602001908152602001600020600201819055507f11672bd0f01174c0c26e70f2a39b677d213333209f7bce80f92c1894c3a2ea63600160008481526020019081526020016000206001016040516106f39190611258565b60405180910390a15b5050565b60016020528060005260406000206000915090508060000154908060010180546107299061106e565b80601f01602080910402602001604051908101604052809291908181526020018280546107559061106e565b80156107a25780601f10610777576101008083540402835291602001916107a2565b820191906000526020600020905b81548152906001019060200180831161078557829003601f168201915b5050505050908060020154908060030160009054906101000a900460ff16908060040154905085565b3373ffffffffffffffffffffffffffffffffffffffff1660008054906101000a900473ffffffffffffffffffffffffffffffffffffffff1673ffffffffffffffffffffffffffffffffffffffff1614610859576040517f08c379a000000000000000000000000000000000000000000000000000000000815260040161085090610f21565b60405180910390fd5b600060149054906101000a900460ff16156108a9576040517f08c379a00000000000000000000000000000000000000000000000000000000081526004016108a090610f8d565b60405180910390fd5b6005816020015151116108f1576040517f08c379a00000000000000000000000000000000000000000000000000000000081526004016108e8906112ff565b60405180910390fd5b6040518060a00160405280826000015181526020018260200151815260200160008152602001600015158152602001600081525060016000836000015181526020019081526020016000206000820151816000015560208201518160010190805190602001906109629291906109ba565b506040820151816002015560608201518160030160006101000a81548160ff0219169083151502179055506080820151816004015590505050565b6000670de0b6b3a7640000826109b3919061134e565b9050919050565b8280546109c69061106e565b90600052602060002090601f0160209004810192826109e85760008555610a2f565b82601f10610a0157805160ff1916838001178555610a2f565b82800160010185558215610a2f579182015b82811115610a2e578251825591602001919060010190610a13565b5b509050610a3c9190610a40565b5090565b5b80821115610a59576000816000905550600101610a41565b5090565b6000819050919050565b610a7081610a5d565b82525050565b6000602082019050610a8b6000830184610a67565b92915050565b6000604051905090565b600080fd5b600080fd5b610aae81610a5d565b8114610ab957600080fd5b50565b600081359050610acb81610aa5565b92915050565b600060208284031215610ae757610ae6610a9b565b5b6000610af584828501610abc565b91505092915050565b60008115159050919050565b610b1381610afe565b8114610b1e57600080fd5b50565b600081359050610b3081610b0a565b92915050565b600060208284031215610b4c57610b4b610a9b565b5b6000610b5a84828501610b21565b91505092915050565b60008060408385031215610b7a57610b79610a9b565b5b6000610b8885828601610abc565b9250506020610b9985828601610abc565b9150509250929050565b600081519050919050565b600082825260208201905092915050565b60005b83811015610bdd578082015181840152602081019050610bc2565b83811115610bec576000848401525b50505050565b6000601f19601f8301169050919050565b6000610c0e82610ba3565b610c188185610bae565b9350610c28818560208601610bbf565b610c3181610bf2565b840191505092915050565b610c4581610afe565b82525050565b600060a082019050610c606000830188610a67565b8181036020830152610c728187610c03565b9050610c816040830186610a67565b610c8e6060830185610c3c565b610c9b6080830184610a67565b9695505050505050565b600080fd5b7f4e487b7100000000000000000000000000000000000000000000000000000000600052604160045260246000fd5b610ce282610bf2565b810181811067ffffffffffffffff82111715610d0157610d00610caa565b5b80604052505050565b6000610d14610a91565b9050610d208282610cd9565b919050565b600080fd5b600080fd5b600080fd5b600067ffffffffffffffff821115610d4f57610d4e610caa565b5b610d5882610bf2565b9050602081019050919050565b82818337600083830152505050565b6000610d87610d8284610d34565b610d0a565b905082815260208101848484011115610da357610da2610d2f565b5b610dae848285610d65565b509392505050565b600082601f830112610dcb57610dca610d2a565b5b8135610ddb848260208601610d74565b91505092915050565b600060a08284031215610dfa57610df9610ca5565b5b610e0460a0610d0a565b90506000610e1484828501610abc565b600083015250602082013567ffffffffffffffff811115610e3857610e37610d25565b5b610e4484828501610db6565b6020830152506040610e5884828501610abc565b6040830152506060610e6c84828501610b21565b6060830152506080610e8084828501610abc565b60808301525092915050565b600060208284031215610ea257610ea1610a9b565b5b600082013567ffffffffffffffff811115610ec057610ebf610aa0565b5b610ecc84828501610de4565b91505092915050565b7f596f7520617265206e6f7420746865206f776e65722e00000000000000000000600082015250565b6000610f0b601683610bae565b9150610f1682610ed5565b602082019050919050565b60006020820190508181036000830152610f3a81610efe565b9050919050565b7f546865207265766973696f6e732066696e616c697a65642e0000000000000000600082015250565b6000610f77601883610bae565b9150610f8282610f41565b602082019050919050565b60006020820190508181036000830152610fa681610f6a565b9050919050565b7f54686520616d6f756e742073686f756c64206265206d6f7265207468616e203160008201527f304554482e000000000000000000000000000000000000000000000000000000602082015250565b6000611009602583610bae565b915061101482610fad565b604082019050919050565b6000602082019050818103600083015261103881610ffc565b9050919050565b7f4e487b7100000000000000000000000000000000000000000000000000000000600052602260045260246000fd5b6000600282049050600182168061108657607f821691505b6020821081036110995761109861103f565b5b50919050565b7f596f7572207465737420315020776173206e6f742072657669657765642e0000600082015250565b60006110d5601e83610bae565b91506110e08261109f565b602082019050919050565b60006020820190508181036000830152611104816110c8565b9050919050565b7f596f75722074657374207761732072657669657765642e000000000000000000600082015250565b6000611141601783610bae565b915061114c8261110b565b602082019050919050565b6000602082019050818103600083015261117081611134565b9050919050565b60008190508160005260206000209050919050565b600081546111998161106e565b6111a38186610bae565b945060018216600081146111be57600181146111d057611203565b60ff1983168652602086019350611203565b6111d985611177565b60005b838110156111fb578154818901526001820191506020810190506111dc565b808801955050505b50505092915050565b7f436f6e67726174756c6174696f6e732e00000000000000000000000000000000600082015250565b6000611242601083610bae565b915061124d8261120c565b602082019050919050565b60006040820190508181036000830152611272818461118c565b9050818103602083015261128581611235565b905092915050565b7f546865206e616d65206f662070726f647563742073686f756c64206265206d6f60008201527f7265207468616e2e000000000000000000000000000000000000000000000000602082015250565b60006112e9602883610bae565b91506112f48261128d565b604082019050919050565b60006020820190508181036000830152611318816112dc565b9050919050565b7f4e487b7100000000000000000000000000000000000000000000000000000000600052601260045260246000fd5b600061135982610a5d565b915061136483610a5d565b9250826113745761137361131f565b5b82820490509291505056fea264697066735822122092a2553e606150fa8fac462a6e84f0f00c3e3028864f6be748bf9a9261c6196664736f6c634300080e0033",
  "immutableReferences": {},
  "source": "// SPDX-License-Identifier: GPL-3.0\r\npragma solidity ^0.8.0;\r\n\r\ncontract TestCollege {\r\n\r\n    struct Note {\r\n        uint id;\r\n        string name;\r\n        uint score;\r\n        bool finalized;\r\n        uint typeTest;\r\n    }\r\n\r\n    address private proffesorAddress;\r\n    bool private revisionsClosed = false;\r\n\r\n    event messageEvent(string name, string message);\r\n\r\n    mapping(uint => Note) public listNotes;\r\n\r\n    constructor() {\r\n        proffesorAddress = msg.sender;\r\n    }\r\n\r\n    /**\r\n     * @dev create new Note and add in listNotes\r\n     * @param noteData new Note object\r\n     */\r\n    function createRevision(Note memory noteData) public onlyProffesor closedRevisions {\r\n        require(bytes(noteData.name).length > 5, \"The name of product should be more than.\");\r\n        listNotes[noteData.id] = Note(noteData.id, noteData.name, 0, false, 0);\r\n    }\r\n\r\n    /**\r\n     * @dev Proffesor can finalize revision for one student\r\n     * @param id of student, score of student\r\n     */\r\n    function finalizeReview(uint id, uint score) public payable closedRevisions onlyProffesor {\r\n        require(listNotes[id].typeTest == 0, \"Your test was reviewed.\");\r\n        listNotes[id].finalized = true;\r\n        listNotes[id].typeTest = 1;\r\n        listNotes[id].score = score;\r\n        if (listNotes[id].score > 90) {\r\n            listNotes[id].score = 100;\r\n            emit messageEvent(listNotes[id].name, \"Congratulations.\");\r\n        }\r\n    }\r\n\r\n    /**\r\n     * @dev Student can request 2T test\r\n     * @param id of student\r\n     */\r\n    function request2T(uint id) public payable closedRevisions {\r\n        require(convertWeiToEther(msg.value) > 10, \"The amount should be more than 10ETH.\");\r\n        Note memory noteData = listNotes[id];\r\n        require(noteData.typeTest == 1 && !noteData.finalized, \"Your test 1P was not reviewed.\");\r\n        listNotes[id].typeTest = 2;\r\n        listNotes[id].score = 0;\r\n        listNotes[id].finalized = false;\r\n    }\r\n\r\n    /**\r\n     * @dev Proffesor can open and close revisions process\r\n     * @param state of revisions process\r\n     */\r\n    function closeOrOpenRevisions(bool state) public onlyProffesor {\r\n        revisionsClosed = state;\r\n    }\r\n\r\n    /**\r\n     * @dev Proffesor can see total balance of college\r\n     * @return balance of college\r\n     */\r\n    function balanceOfCollege() public view onlyProffesor returns (uint){\r\n        return address(this).balance;\r\n    }\r\n\r\n    /**\r\n     * @dev convert wei to ether\r\n     * @param amountInWei value in wei to convert\r\n     * @return param value in wei format\r\n     */\r\n    function convertWeiToEther(uint amountInWei) private pure returns (uint) {\r\n        return amountInWei / 1 ether;\r\n    }\r\n\r\n    // Modifier to allow just proffesor can do something\r\n    modifier onlyProffesor() {\r\n        require(proffesorAddress == msg.sender, \"You are not the owner.\");\r\n        _;\r\n    }\r\n\r\n    // Modifier to verify is revisions process is open or close\r\n    modifier closedRevisions() {\r\n        require(!revisionsClosed, \"The revisions finalized.\");\r\n        _;\r\n    }\r\n\r\n}\r\n",
  "sourcePath": "C:\\Users\\HP\\Desktop\\Universidad testing\\contracts\\TestCollege.sol",
  "compiler": {
    "name": "solc",
    "version": "0.8.14+commit.80d49f37.Emscripten.clang"
  },
  "schemaVersion": "3.4.7",
  "updatedAt": "2022-06-17T17:32:01.591Z",
  "devdoc": {
    "kind": "dev",
    "methods": {
      "balanceOfCollege()": {
        "details": "Proffesor can see total balance of college",
        "returns": {
          "_0": "balance of college"
        }
      },
      "closeOrOpenRevisions(bool)": {
        "details": "Proffesor can open and close revisions process",
        "params": {
          "state": "of revisions process"
        }
      },
      "createRevision((uint256,string,uint256,bool,uint256))": {
        "details": "create new Note and add in listNotes",
        "params": {
          "noteData": "new Note object"
        }
      },
      "finalizeReview(uint256,uint256)": {
        "details": "Proffesor can finalize revision for one student",
        "params": {
          "id": "of student, score of student"
        }
      },
      "request2T(uint256)": {
        "details": "Student can request 2T test",
        "params": {
          "id": "of student"
        }
      }
    },
    "version": 1
  },
  "userdoc": {
    "kind": "user",
    "methods": {},
    "version": 1
  }
}